{
    "contractName": "FarmDApp",
    "abi": [
        {
            "anonymous": false,
            "inputs": [
                {
                    "indexed": false,
                    "internalType": "uint256",
                    "name": "jobId",
                    "type": "uint256"
                },
                {
                    "indexed": false,
                    "internalType": "string",
                    "name": "status",
                    "type": "string"
                }
            ],
            "name": "JobUpdated",
            "type": "event"
        },
        {
            "anonymous": false,
            "inputs": [
                {
                    "indexed": false,
                    "internalType": "uint256",
                    "name": "pointsId",
                    "type": "uint256"
                },
                {
                    "indexed": false,
                    "internalType": "address",
                    "name": "farmer",
                    "type": "address"
                },
                {
                    "indexed": false,
                    "internalType": "uint256",
                    "name": "amount",
                    "type": "uint256"
                }
            ],
            "name": "PointsEarned",
            "type": "event"
        },
        {
            "anonymous": false,
            "inputs": [
                {
                    "indexed": false,
                    "internalType": "uint256",
                    "name": "produceId",
                    "type": "uint256"
                },
                {
                    "indexed": false,
                    "internalType": "address",
                    "name": "farmer",
                    "type": "address"
                },
                {
                    "indexed": false,
                    "internalType": "string",
                    "name": "details",
                    "type": "string"
                }
            ],
            "name": "ProduceAdded",
            "type": "event"
        },
        {
            "inputs": [
                {
                    "internalType": "string",
                    "name": "details",
                    "type": "string"
                }
            ],
            "name": "addProduce",
            "outputs": [],
            "stateMutability": "nonpayable",
            "type": "function"
        },
        {
            "inputs": [
                {
                    "internalType": "uint256",
                    "name": "produceId",
                    "type": "uint256"
                }
            ],
            "name": "earnPoints",
            "outputs": [],
            "stateMutability": "nonpayable",
            "type": "function"
        },
        {
            "inputs": [
                {
                    "internalType": "uint256",
                    "name": "jobId",
                    "type": "uint256"
                }
            ],
            "name": "getJob",
            "outputs": [
                {
                    "internalType": "uint256",
                    "name": "",
                    "type": "uint256"
                },
                {
                    "internalType": "address",
                    "name": "",
                    "type": "address"
                },
                {
                    "internalType": "address",
                    "name": "",
                    "type": "address"
                },
                {
                    "internalType": "string",
                    "name": "",
                    "type": "string"
                },
                {
                    "internalType": "string",
                    "name": "",
                    "type": "string"
                }
            ],
            "stateMutability": "view",
            "type": "function"
        },
        {
            "inputs": [
                {
                    "internalType": "uint256",
                    "name": "pointsId",
                    "type": "uint256"
                }
            ],
            "name": "getPoints",
            "outputs": [
                {
                    "internalType": "uint256",
                    "name": "",
                    "type": "uint256"
                },
                {
                    "internalType": "address",
                    "name": "",
                    "type": "address"
                },
                {
                    "internalType": "uint256",
                    "name": "",
                    "type": "uint256"
                },
                {
                    "internalType": "string",
                    "name": "",
                    "type": "string"
                }
            ],
            "stateMutability": "view",
            "type": "function"
        },
        {
            "inputs": [
                {
                    "internalType": "uint256",
                    "name": "produceId",
                    "type": "uint256"
                }
            ],
            "name": "getProduce",
            "outputs": [
                {
                    "internalType": "uint256",
                    "name": "",
                    "type": "uint256"
                },
                {
                    "internalType": "address",
                    "name": "",
                    "type": "address"
                },
                {
                    "internalType": "string",
                    "name": "",
                    "type": "string"
                },
                {
                    "internalType": "string",
                    "name": "",
                    "type": "string"
                },
                {
                    "internalType": "string",
                    "name": "",
                    "type": "string"
                }
            ],
            "stateMutability": "view",
            "type": "function"
        },
        {
            "inputs": [],
            "name": "jobCount",
            "outputs": [
                {
                    "internalType": "uint256",
                    "name": "",
                    "type": "uint256"
                }
            ],
            "stateMutability": "view",
            "type": "function"
        },
        {
            "inputs": [
                {
                    "internalType": "uint256",
                    "name": "",
                    "type": "uint256"
                }
            ],
            "name": "jobs",
            "outputs": [
                {
                    "internalType": "uint256",
                    "name": "jobId",
                    "type": "uint256"
                },
                {
                    "internalType": "address",
                    "name": "sacco",
                    "type": "address"
                },
                {
                    "internalType": "address",
                    "name": "agent",
                    "type": "address"
                },
                {
                    "internalType": "string",
                    "name": "status",
                    "type": "string"
                },
                {
                    "internalType": "string",
                    "name": "ratings",
                    "type": "string"
                }
            ],
            "stateMutability": "view",
            "type": "function"
        },
        {
            "inputs": [
                {
                    "internalType": "uint256",
                    "name": "",
                    "type": "uint256"
                }
            ],
            "name": "points",
            "outputs": [
                {
                    "internalType": "uint256",
                    "name": "pointsId",
                    "type": "uint256"
                },
                {
                    "internalType": "address",
                    "name": "farmer",
                    "type": "address"
                },
                {
                    "internalType": "uint256",
                    "name": "amount",
                    "type": "uint256"
                },
                {
                    "internalType": "string",
                    "name": "redemptionStatus",
                    "type": "string"
                }
            ],
            "stateMutability": "view",
            "type": "function"
        },
        {
            "inputs": [],
            "name": "pointsCount",
            "outputs": [
                {
                    "internalType": "uint256",
                    "name": "",
                    "type": "uint256"
                }
            ],
            "stateMutability": "view",
            "type": "function"
        },
        {
            "inputs": [],
            "name": "produceCount",
            "outputs": [
                {
                    "internalType": "uint256",
                    "name": "",
                    "type": "uint256"
                }
            ],
            "stateMutability": "view",
            "type": "function"
        },
        {
            "inputs": [
                {
                    "internalType": "uint256",
                    "name": "",
                    "type": "uint256"
                }
            ],
            "name": "produces",
            "outputs": [
                {
                    "internalType": "uint256",
                    "name": "produceId",
                    "type": "uint256"
                },
                {
                    "internalType": "address",
                    "name": "farmer",
                    "type": "address"
                },
                {
                    "internalType": "string",
                    "name": "details",
                    "type": "string"
                },
                {
                    "internalType": "string",
                    "name": "progress",
                    "type": "string"
                },
                {
                    "internalType": "string",
                    "name": "verificationStatus",
                    "type": "string"
                }
            ],
            "stateMutability": "view",
            "type": "function"
        },
        {
            "inputs": [
                {
                    "internalType": "uint256",
                    "name": "jobId",
                    "type": "uint256"
                },
                {
                    "internalType": "string",
                    "name": "status",
                    "type": "string"
                }
            ],
            "name": "updateJobStatus",
            "outputs": [],
            "stateMutability": "nonpayable",
            "type": "function"
        }
    ],
    "bytecode": "608080604052346021575f6003555f6004555f600555610fd490816100268239f35b5f80fdfe60806040526004361015610011575f80fd5b5f3560e01c8063022124d714610b01578063180aedf314610aa3578063389b806614610a125780633aefc4b91461058e5780634c5d8a0f1461057157806356cd83061461050e578063769428d4146104f1578063859323451461023d5780639799b4e7146101ed578063a967eee414610169578063bf22c457146100be5763d569729c1461009d575f80fd5b346100ba575f3660031901126100ba576020600554604051908152f35b5f80fd5b346100ba5760203660031901126100ba576004355f52600160205260405f206040516100e981610d22565b8154815260018201546001600160a01b039081166020830190815260028401549091166040830190815292909161016591610139600461012b60038401610e0a565b926060850193845201610e0a565b60808301819052915193519451905160405195869591926001600160a01b039081169291169086610ece565b0390f35b346100ba5760203660031901126100ba576004355f52600260205260405f2060405161019481610d3e565b8154815260018201546001600160a01b031660208201908152600283015460408301908152929091610165916101cc90600301610e0a565b90816060820152519260018060a01b03905116935160405194859485610f51565b346100ba5760203660031901126100ba576004355f52600260205260405f20805461016560018060a01b0360018401541692610230600360028301549201610e0a565b9060405194859485610f51565b346100ba5760203660031901126100ba576004355f908152602081905260409020600101546001600160a01b031633036104925761027c600554610f7c565b80600555600354906040519161029183610d3e565b82526003602083019233845260408101600a81526040948551946102b58787610d5a565b600a8652691d5b9c995919595b595960b21b6020870152606084019586525f526002602052855f209251835560018060a01b03905116600183019060018060a01b03166bffffffffffffffffffffffff60a01b82541617905551600282015501905180519067ffffffffffffffff821161047e576103338354610dd2565b601f8111610439575b50602090601f83116001146103b1579180606094927fddfb6b1ef3020d5749995e809a206473236d57afa16120d204cd4e5d09769dad96945f926103a6575b50508160011b915f199060031b1c19161790555b600a600554918051928352336020840152820152a1005b01519050868061037b565b90601f19831691845f52815f20925f5b81811061042157509260019285927fddfb6b1ef3020d5749995e809a206473236d57afa16120d204cd4e5d09769dad98966060989610610409575b505050811b01905561038f565b01515f1960f88460031b161c191690558680806103fc565b929360206001819287860151815501950193016103c1565b835f5260205f20601f840160051c81019160208510610474575b601f0160051c01905b818110610469575061033c565b5f815560010161045c565b9091508190610453565b634e487b7160e01b5f52604160045260245ffd5b60405162461bcd60e51b815260206004820152603160248201527f4f6e6c7920746865206661726d65722063616e206561726e20706f696e746420604482015270666f722074686569722070726f6475636560781b6064820152608490fd5b346100ba575f3660031901126100ba576020600354604051908152f35b346100ba5760203660031901126100ba576004355f525f60205260405f20805461016560018060a01b036001840154169261054b60028201610e0a565b90610564600461055d60038401610e0a565b9201610e0a565b9160405195869586610f14565b346100ba575f3660031901126100ba576020600454604051908152f35b346100ba5760203660031901126100ba5760043567ffffffffffffffff81116100ba576105bf903690600401610d7c565b6105ca600354610f7c565b9081600355604051906105dc82610d22565b828252602082019133835260408101928284526040938451916105ff8684610d5a565b600783526650656e64696e6760c81b6020840152606084019283528551966106278789610d5a565b600c88526b139bdd0815995c9a599a595960a21b6020808a0191909152608086019889525f91825281905286902093518455516001840180546001600160a01b0319166001600160a01b0392909216919091179055518051600284019167ffffffffffffffff821161047e57819061069f8454610dd2565b601f81116109c2575b50602090601f831160011461095f575f92610954575b50508160011b915f199060031b1c19161790555b518051600383019167ffffffffffffffff821161047e576106f38354610dd2565b601f811161090f575b50602090601f83116001146108a8576004949392915f918361089d575b50508160011b915f199060031b1c19161790555b01925192835167ffffffffffffffff811161047e5761074c8254610dd2565b601f8111610858575b506020601f82116001146107d55781907fd6ffe163915d72ee45b2fb070c5e7a8fe2b7ad2db1c1755e4f14779208349787965f926107ca575b50508160011b915f199060031b1c19161790555b6107c5600354916060845194859485523360208601528401526060830190610eaa565b0390a1005b01519050868061078e565b601f19821695835f52815f20965f5b8181106108405750917fd6ffe163915d72ee45b2fb070c5e7a8fe2b7ad2db1c1755e4f147792083497879791846001959410610828575b505050811b0190556107a2565b01515f1960f88460031b161c1916905586808061081b565b838301518955600190980197602093840193016107e4565b825f5260205f20601f830160051c81019160208410610893575b601f0160051c01905b8181106108885750610755565b5f815560010161087b565b9091508190610872565b015190508880610719565b90601f19831691845f52815f20925f5b8181106108f75750916001939185600498979694106108df575b505050811b01905561072d565b01515f1960f88460031b161c191690558880806108d2565b929360206001819287860151815501950193016108b8565b835f5260205f20601f840160051c8101916020851061094a575b601f0160051c01905b81811061093f57506106fc565b5f8155600101610932565b9091508190610929565b0151905088806106be565b5f8581528281209350601f198516905b8181106109aa5750908460019594939210610992575b505050811b0190556106d2565b01515f1960f88460031b161c19169055888080610985565b9293602060018192878601518155019501930161096f565b909150835f5260205f20601f840160051c81019160208510610a08575b90601f859493920160051c01905b8181106109fa57506106a8565b5f81558493506001016109ed565b90915081906109df565b346100ba5760203660031901126100ba576004355f525f60205260405f20604051610a3c81610d22565b8154815260018201546001600160a01b0316602082019081529061016590610a6660028501610e0a565b9360408201948552610a7f600461012b60038401610e0a565b91826080820152519360018060a01b03905116945190519060405195869586610f14565b346100ba5760203660031901126100ba576004355f52600160205260405f20805461016560018060a01b036001840154169260018060a01b0360028201541690610af4600461055d60038401610e0a565b9160405195869586610ece565b346100ba5760403660031901126100ba5760043560243567ffffffffffffffff81116100ba57610b35903690600401610d7c565b5f828152600160205260409020600201546001600160a01b03163303610cc357815f526001602052600360405f20019181519267ffffffffffffffff841161047e57610b818154610dd2565b601f8111610c7e575b50602093601f8111600114610bfd57807f4b8f0934c14da92e4e0907a10b2b403a99fae79d2f3961b5c7f78744ed443404955f91610bf2575b508160011b915f199060031b1c19161790555b6107c56040519283928352604060208401526040830190610eaa565b905084015186610bc3565b601f19811694825f52805f20955f5b818110610c6657509582916001937f4b8f0934c14da92e4e0907a10b2b403a99fae79d2f3961b5c7f78744ed4434049810610c4e575b5050811b019055610bd6565b8601515f1960f88460031b161c191690558680610c42565b86830151885560019097019660209283019201610c0c565b815f5260205f20601f860160051c81019160208710610cb9575b601f0160051c01905b818110610cae5750610b8a565b5f8155600101610ca1565b9091508190610c98565b60405162461bcd60e51b815260206004820152603160248201527f6f6e6c79207468652061737369676e6564206167656e742063616e2055706461604482015270746520746865204a6f622073746174757360781b6064820152608490fd5b60a0810190811067ffffffffffffffff82111761047e57604052565b6080810190811067ffffffffffffffff82111761047e57604052565b90601f8019910116810190811067ffffffffffffffff82111761047e57604052565b81601f820112156100ba5780359067ffffffffffffffff821161047e5760405192610db1601f8401601f191660200185610d5a565b828452602083830101116100ba57815f926020809301838601378301015290565b90600182811c92168015610e00575b6020831014610dec57565b634e487b7160e01b5f52602260045260245ffd5b91607f1691610de1565b9060405191825f825492610e1d84610dd2565b8084529360018116908115610e885750600114610e44575b50610e4292500383610d5a565b565b90505f9291925260205f20905f915b818310610e6c575050906020610e42928201015f610e35565b6020919350806001915483858901015201910190918492610e53565b905060209250610e4294915060ff191682840152151560051b8201015f610e35565b805180835260209291819084018484015e5f828201840152601f01601f1916010190565b9081526001600160a01b0391821660208201529116604082015260a060608201819052610f11939192610f0391840190610eaa565b916080818403910152610eaa565b90565b9390610f119593610f0393610f4392875260018060a01b0316602087015260a0604087015260a0860190610eaa565b908482036060860152610eaa565b9092608092610f119594835260018060a01b0316602083015260408201528160608201520190610eaa565b5f198114610f8a5760010190565b634e487b7160e01b5f52601160045260245ffdfea2646970667358221220041bd33dc030da356fc5ec2aa45ee48295dc377b731b9773ed949b7ad088b11364736f6c634300081d0033",
    "sourcePath": "c:/Users/hp/Desktop/Andy/project/FarmDApp/contracts/FarmDApp.sol",
    "compiler": {
        "name": "solc",
        "version": "0.8.29+commit.ab55807c"
    },
    "functionHashes": {
        "addProduce(string)": "3aefc4b9",
        "earnPoints(uint256)": "85932345",
        "getJob(uint256)": "bf22c457",
        "getPoints(uint256)": "a967eee4",
        "getProduce(uint256)": "389b8066",
        "jobCount()": "4c5d8a0f",
        "jobs(uint256)": "180aedf3",
        "points(uint256)": "9799b4e7",
        "pointsCount()": "d569729c",
        "produceCount()": "769428d4",
        "produces(uint256)": "56cd8306",
        "updateJobStatus(uint256,string)": "022124d7"
    },
    "gasEstimates": {
        "creation": {
            "codeDepositCost": "810400",
            "executionCost": "15867",
            "totalCost": "826267"
        },
        "external": {
            "addProduce(string)": "infinite",
            "earnPoints(uint256)": "infinite",
            "getJob(uint256)": "infinite",
            "getPoints(uint256)": "infinite",
            "getProduce(uint256)": "infinite",
            "jobCount()": "2336",
            "jobs(uint256)": "infinite",
            "points(uint256)": "infinite",
            "pointsCount()": "2487",
            "produceCount()": "2380",
            "produces(uint256)": "infinite",
            "updateJobStatus(uint256,string)": "infinite"
        }
    }
}