{
  "contractName": "FarmDApp",
  "abi": [
    {
      "anonymous": false,
      "inputs": [
        {
          "indexed": false,
          "internalType": "uint256",
          "name": "farmerID",
          "type": "uint256"
        },
        {
          "indexed": false,
          "internalType": "string",
          "name": "name",
          "type": "string"
        }
      ],
      "name": "FarmerRegistered",
      "type": "event"
    },
    {
      "anonymous": false,
      "inputs": [
        {
          "indexed": false,
          "internalType": "uint256",
          "name": "paymentID",
          "type": "uint256"
        },
        {
          "indexed": false,
          "internalType": "uint256",
          "name": "farmerID",
          "type": "uint256"
        },
        {
          "indexed": false,
          "internalType": "uint256",
          "name": "amount",
          "type": "uint256"
        }
      ],
      "name": "PaymentReleased",
      "type": "event"
    },
    {
      "anonymous": false,
      "inputs": [
        {
          "indexed": false,
          "internalType": "uint256",
          "name": "pointsID",
          "type": "uint256"
        },
        {
          "indexed": false,
          "internalType": "uint256",
          "name": "farmerID",
          "type": "uint256"
        },
        {
          "indexed": false,
          "internalType": "uint256",
          "name": "points",
          "type": "uint256"
        }
      ],
      "name": "PointsEarned",
      "type": "event"
    },
    {
      "anonymous": false,
      "inputs": [
        {
          "indexed": false,
          "internalType": "uint256",
          "name": "produceID",
          "type": "uint256"
        },
        {
          "indexed": false,
          "internalType": "uint256",
          "name": "farmerID",
          "type": "uint256"
        }
      ],
      "name": "ProduceSubmitted",
      "type": "event"
    },
    {
      "anonymous": false,
      "inputs": [
        {
          "indexed": false,
          "internalType": "uint256",
          "name": "contractID",
          "type": "uint256"
        },
        {
          "indexed": false,
          "internalType": "uint256",
          "name": "transactionID",
          "type": "uint256"
        }
      ],
      "name": "SmartContractInitiated",
      "type": "event"
    },
    {
      "anonymous": false,
      "inputs": [
        {
          "indexed": false,
          "internalType": "uint256",
          "name": "transactionID",
          "type": "uint256"
        },
        {
          "indexed": false,
          "internalType": "uint256",
          "name": "produceID",
          "type": "uint256"
        }
      ],
      "name": "TransactionCreated",
      "type": "event"
    },
    {
      "inputs": [],
      "name": "agentCount",
      "outputs": [
        {
          "internalType": "uint256",
          "name": "",
          "type": "uint256"
        }
      ],
      "stateMutability": "view",
      "type": "function",
      "constant": true
    },
    {
      "inputs": [],
      "name": "contractCount",
      "outputs": [
        {
          "internalType": "uint256",
          "name": "",
          "type": "uint256"
        }
      ],
      "stateMutability": "view",
      "type": "function",
      "constant": true
    },
    {
      "inputs": [],
      "name": "farmerCount",
      "outputs": [
        {
          "internalType": "uint256",
          "name": "",
          "type": "uint256"
        }
      ],
      "stateMutability": "view",
      "type": "function",
      "constant": true
    },
    {
      "inputs": [
        {
          "internalType": "uint256",
          "name": "",
          "type": "uint256"
        }
      ],
      "name": "farmers",
      "outputs": [
        {
          "internalType": "uint256",
          "name": "farmerID",
          "type": "uint256"
        },
        {
          "internalType": "string",
          "name": "name",
          "type": "string"
        },
        {
          "internalType": "string",
          "name": "contractInfo",
          "type": "string"
        },
        {
          "internalType": "address",
          "name": "walletAddress",
          "type": "address"
        }
      ],
      "stateMutability": "view",
      "type": "function",
      "constant": true
    },
    {
      "inputs": [
        {
          "internalType": "uint256",
          "name": "",
          "type": "uint256"
        }
      ],
      "name": "payment",
      "outputs": [
        {
          "internalType": "uint256",
          "name": "paymentID",
          "type": "uint256"
        },
        {
          "internalType": "uint256",
          "name": "transactionID",
          "type": "uint256"
        },
        {
          "internalType": "uint256",
          "name": "farmerID",
          "type": "uint256"
        },
        {
          "internalType": "uint256",
          "name": "amount",
          "type": "uint256"
        },
        {
          "internalType": "uint256",
          "name": "timestamp",
          "type": "uint256"
        }
      ],
      "stateMutability": "view",
      "type": "function",
      "constant": true
    },
    {
      "inputs": [],
      "name": "paymentCount",
      "outputs": [
        {
          "internalType": "uint256",
          "name": "",
          "type": "uint256"
        }
      ],
      "stateMutability": "view",
      "type": "function",
      "constant": true
    },
    {
      "inputs": [],
      "name": "pointsCount",
      "outputs": [
        {
          "internalType": "uint256",
          "name": "",
          "type": "uint256"
        }
      ],
      "stateMutability": "view",
      "type": "function",
      "constant": true
    },
    {
      "inputs": [],
      "name": "produceCount",
      "outputs": [
        {
          "internalType": "uint256",
          "name": "",
          "type": "uint256"
        }
      ],
      "stateMutability": "view",
      "type": "function",
      "constant": true
    },
    {
      "inputs": [
        {
          "internalType": "uint256",
          "name": "",
          "type": "uint256"
        }
      ],
      "name": "produces",
      "outputs": [
        {
          "internalType": "uint256",
          "name": "produceID",
          "type": "uint256"
        },
        {
          "internalType": "uint256",
          "name": "farmerID",
          "type": "uint256"
        },
        {
          "internalType": "string",
          "name": "produceType",
          "type": "string"
        },
        {
          "internalType": "uint256",
          "name": "quantity",
          "type": "uint256"
        },
        {
          "internalType": "string",
          "name": "qualityGrade",
          "type": "string"
        },
        {
          "internalType": "bool",
          "name": "isApproved",
          "type": "bool"
        }
      ],
      "stateMutability": "view",
      "type": "function",
      "constant": true
    },
    {
      "inputs": [
        {
          "internalType": "uint256",
          "name": "",
          "type": "uint256"
        }
      ],
      "name": "saccoPoints",
      "outputs": [
        {
          "internalType": "uint256",
          "name": "pointsID",
          "type": "uint256"
        },
        {
          "internalType": "uint256",
          "name": "farmerID",
          "type": "uint256"
        },
        {
          "internalType": "uint256",
          "name": "pointsEarned",
          "type": "uint256"
        },
        {
          "internalType": "uint256",
          "name": "timestamp",
          "type": "uint256"
        }
      ],
      "stateMutability": "view",
      "type": "function",
      "constant": true
    },
    {
      "inputs": [
        {
          "internalType": "uint256",
          "name": "",
          "type": "uint256"
        }
      ],
      "name": "smartContract",
      "outputs": [
        {
          "internalType": "uint256",
          "name": "contractID",
          "type": "uint256"
        },
        {
          "internalType": "uint256",
          "name": "transactionID",
          "type": "uint256"
        },
        {
          "internalType": "uint256",
          "name": "agentID",
          "type": "uint256"
        },
        {
          "internalType": "string",
          "name": "terms",
          "type": "string"
        },
        {
          "internalType": "string",
          "name": "status",
          "type": "string"
        }
      ],
      "stateMutability": "view",
      "type": "function",
      "constant": true
    },
    {
      "inputs": [
        {
          "internalType": "uint256",
          "name": "",
          "type": "uint256"
        }
      ],
      "name": "transaction",
      "outputs": [
        {
          "internalType": "uint256",
          "name": "transactionID",
          "type": "uint256"
        },
        {
          "internalType": "uint256",
          "name": "produceID",
          "type": "uint256"
        },
        {
          "internalType": "uint256",
          "name": "farmerID",
          "type": "uint256"
        },
        {
          "internalType": "uint256",
          "name": "timestamp",
          "type": "uint256"
        },
        {
          "internalType": "string",
          "name": "status",
          "type": "string"
        }
      ],
      "stateMutability": "view",
      "type": "function",
      "constant": true
    },
    {
      "inputs": [],
      "name": "transactionCount",
      "outputs": [
        {
          "internalType": "uint256",
          "name": "",
          "type": "uint256"
        }
      ],
      "stateMutability": "view",
      "type": "function",
      "constant": true
    },
    {
      "inputs": [
        {
          "internalType": "uint256",
          "name": "",
          "type": "uint256"
        }
      ],
      "name": "transportAgents",
      "outputs": [
        {
          "internalType": "uint256",
          "name": "agentID",
          "type": "uint256"
        },
        {
          "internalType": "string",
          "name": "name",
          "type": "string"
        },
        {
          "internalType": "string",
          "name": "contactInfo",
          "type": "string"
        },
        {
          "internalType": "string",
          "name": "vehicleDetails",
          "type": "string"
        }
      ],
      "stateMutability": "view",
      "type": "function",
      "constant": true
    },
    {
      "inputs": [
        {
          "internalType": "string",
          "name": "_name",
          "type": "string"
        },
        {
          "internalType": "string",
          "name": "_contractInfo",
          "type": "string"
        }
      ],
      "name": "registerFarmer",
      "outputs": [],
      "stateMutability": "nonpayable",
      "type": "function"
    },
    {
      "inputs": [
        {
          "internalType": "uint256",
          "name": "_farmerID",
          "type": "uint256"
        },
        {
          "internalType": "string",
          "name": "_produceType",
          "type": "string"
        },
        {
          "internalType": "uint256",
          "name": "_quantity",
          "type": "uint256"
        },
        {
          "internalType": "string",
          "name": "_qualityGrade",
          "type": "string"
        }
      ],
      "name": "submitProduce",
      "outputs": [],
      "stateMutability": "nonpayable",
      "type": "function"
    },
    {
      "inputs": [
        {
          "internalType": "uint256",
          "name": "_produceID",
          "type": "uint256"
        },
        {
          "internalType": "uint256",
          "name": "_farmerID",
          "type": "uint256"
        }
      ],
      "name": "createTransaction",
      "outputs": [],
      "stateMutability": "nonpayable",
      "type": "function"
    },
    {
      "inputs": [
        {
          "internalType": "uint256",
          "name": "_transactionID",
          "type": "uint256"
        },
        {
          "internalType": "uint256",
          "name": "_agentID",
          "type": "uint256"
        },
        {
          "internalType": "string",
          "name": "_terms",
          "type": "string"
        }
      ],
      "name": "initiateSmartContract",
      "outputs": [],
      "stateMutability": "nonpayable",
      "type": "function"
    },
    {
      "inputs": [
        {
          "internalType": "uint256",
          "name": "_transactionID",
          "type": "uint256"
        },
        {
          "internalType": "uint256",
          "name": "_farmerID",
          "type": "uint256"
        },
        {
          "internalType": "uint256",
          "name": "_amount",
          "type": "uint256"
        }
      ],
      "name": "relesePayment",
      "outputs": [],
      "stateMutability": "nonpayable",
      "type": "function"
    },
    {
      "inputs": [
        {
          "internalType": "uint256",
          "name": "_farmerID",
          "type": "uint256"
        },
        {
          "internalType": "uint256",
          "name": "_points",
          "type": "uint256"
        }
      ],
      "name": "earnPoints",
      "outputs": [],
      "stateMutability": "nonpayable",
      "type": "function"
    }
  ],
  "bytecode": "0x60806040526000600755600060085560006009556000600a556000600b556000600c556000600d5534801561003357600080fd5b50611a5f806100436000396000f3fe608060405234801561001057600080fd5b506004361061012c5760003560e01c80638736381a116100ad578063b7dc128411610071578063b7dc12841461036b578063bd45b39714610389578063d569729c146103a7578063e44da3d0146103c5578063f0829d57146103e15761012c565b80638736381a146102955780638afdd669146102b35780638b3c99e3146102e6578063a0e5ed041461031a578063b77bf6001461034d5761012c565b806346bd0841116100f457806346bd0841146101d657806354367c491461020a57806356cd83061461022657806366b3bc771461025b578063769428d4146102775761012c565b80630708048f146101315780630937e68a1461014d578063183f27dc1461016b578063314596b214610187578063420c17c9146101a3575b600080fd5b61014b60048036038101906101469190611423565b610415565b005b6101556104e2565b60405161016291906114d8565b60405180910390f35b610185600480360381019061018091906113bc565b6104e8565b005b6101a1600480360381019061019c9190611258565b61060e565b005b6101bd60048036038101906101b891906112c4565b610740565b6040516101cd9493929190611700565b60405180910390f35b6101f060048036038101906101eb91906112c4565b610770565b604051610201959493929190611745565b60405180910390f35b610224600480360381019061021f91906112ed565b61082e565b005b610240600480360381019061023b91906112c4565b610949565b604051610252969594939291906115f9565b60405180910390f35b61027560048036038101906102709190611380565b610aa2565b005b61027f610bb4565b60405161028c91906114d8565b60405180910390f35b61029d610bba565b6040516102aa91906114d8565b60405180910390f35b6102cd60048036038101906102c891906112c4565b610bc0565b6040516102dd9493929190611523565b60405180910390f35b61030060048036038101906102fb91906112c4565b610d20565b60405161031195949392919061179f565b60405180910390f35b610334600480360381019061032f91906112c4565b610d56565b6040516103449493929190611576565b60405180910390f35b610355610f1e565b60405161036291906114d8565b60405180910390f35b610373610f24565b60405161038091906114d8565b60405180910390f35b610391610f2a565b60405161039e91906114d8565b60405180910390f35b6103af610f30565b6040516103bc91906114d8565b60405180910390f35b6103df60048036038101906103da9190611380565b610f36565b005b6103fb60048036038101906103f691906112c4565b610ff2565b60405161040c95949392919061169f565b60405180910390f35b600c60008154809291906104289061192b565b91905055506040518060a00160405280600c5481526020018481526020018381526020018281526020014281525060056000600c54815260200190815260200160002060008201518160000155602082015181600101556040820151816002015560608201518160030155608082015181600401559050507f3c70b1e8034b5738ec77fbfdaa4d28906a0b3160018d67a2dc7b534e53e33fe0600c5483836040516104d593929190611668565b60405180910390a1505050565b600c5481565b600b60008154809291906104fb9061192b565b91905055506040518060a00160405280600b5481526020018481526020018381526020018281526020016040518060400160405280600681526020017f416374697665000000000000000000000000000000000000000000000000000081525081525060046000600b54815260200190815260200160002060008201518160000155602082015181600101556040820151816002015560608201518160030190805190602001906105ad929190611138565b5060808201518160040190805190602001906105ca929190611138565b509050507fceff142d6ec1d766bc68dacd0fa9efd2940786e944070b1f4498f1671deecac0600b54846040516106019291906115d0565b60405180910390a1505050565b600760008154809291906106219061192b565b9190505550604051806080016040528060075481526020018381526020018281526020013373ffffffffffffffffffffffffffffffffffffffff168152506000806007548152602001908152602001600020600082015181600001556020820151816001019080519060200190610699929190611138565b5060408201518160020190805190602001906106b6929190611138565b5060608201518160030160006101000a81548173ffffffffffffffffffffffffffffffffffffffff021916908373ffffffffffffffffffffffffffffffffffffffff1602179055509050507f072da3391cb0960d2daf37d372bffb148de71e5f5308a3dfc588187bea5c939c600754836040516107349291906114f3565b60405180910390a15050565b60066020528060005260406000206000915090508060000154908060010154908060020154908060030154905084565b60026020528060005260406000206000915090508060000154908060010154908060020154908060030154908060040180546107ab906118f9565b80601f01602080910402602001604051908101604052809291908181526020018280546107d7906118f9565b80156108245780601f106107f957610100808354040283529160200191610824565b820191906000526020600020905b81548152906001019060200180831161080757829003601f168201915b5050505050905085565b600860008154809291906108419061192b565b91905055506040518060c00160405280600854815260200185815260200184815260200183815260200182815260200160001515815250600160006008548152602001908152602001600020600082015181600001556020820151816001015560408201518160020190805190602001906108bd929190611138565b506060820151816003015560808201518160040190805190602001906108e4929190611138565b5060a08201518160050160006101000a81548160ff0219169083151502179055509050507f132436ec252069553436a9e94dbdd8e1c5bc3029c8251c2cc9e9242ff353fdee6008548560405161093b9291906115d0565b60405180910390a150505050565b6001602052806000526040600020600091509050806000015490806001015490806002018054610978906118f9565b80601f01602080910402602001604051908101604052809291908181526020018280546109a4906118f9565b80156109f15780601f106109c6576101008083540402835291602001916109f1565b820191906000526020600020905b8154815290600101906020018083116109d457829003601f168201915b505050505090806003015490806004018054610a0c906118f9565b80601f0160208091040260200160405190810160405280929190818152602001828054610a38906118f9565b8015610a855780601f10610a5a57610100808354040283529160200191610a85565b820191906000526020600020905b815481529060010190602001808311610a6857829003601f168201915b5050505050908060050160009054906101000a900460ff16905086565b60096000815480929190610ab59061192b565b91905055506040518060a0016040528060095481526020018381526020018281526020014281526020016040518060400160405280600781526020017f50656e64696e6700000000000000000000000000000000000000000000000000815250815250600260006009548152602001908152602001600020600082015181600001556020820151816001015560408201518160020155606082015181600301556080820151816004019080519060200190610b71929190611138565b509050507f6110ba4ca3a2a4b05be8a5160cfb9b4dfbdc1738e1c8e424a1546fc3f2bce84360095483604051610ba89291906115d0565b60405180910390a15050565b60085481565b600b5481565b6000602052806000526040600020600091509050806000015490806001018054610be9906118f9565b80601f0160208091040260200160405190810160405280929190818152602001828054610c15906118f9565b8015610c625780601f10610c3757610100808354040283529160200191610c62565b820191906000526020600020905b815481529060010190602001808311610c4557829003601f168201915b505050505090806002018054610c77906118f9565b80601f0160208091040260200160405190810160405280929190818152602001828054610ca3906118f9565b8015610cf05780601f10610cc557610100808354040283529160200191610cf0565b820191906000526020600020905b815481529060010190602001808311610cd357829003601f168201915b5050505050908060030160009054906101000a900473ffffffffffffffffffffffffffffffffffffffff16905084565b60056020528060005260406000206000915090508060000154908060010154908060020154908060030154908060040154905085565b6003602052806000526040600020600091509050806000015490806001018054610d7f906118f9565b80601f0160208091040260200160405190810160405280929190818152602001828054610dab906118f9565b8015610df85780601f10610dcd57610100808354040283529160200191610df8565b820191906000526020600020905b815481529060010190602001808311610ddb57829003601f168201915b505050505090806002018054610e0d906118f9565b80601f0160208091040260200160405190810160405280929190818152602001828054610e39906118f9565b8015610e865780601f10610e5b57610100808354040283529160200191610e86565b820191906000526020600020905b815481529060010190602001808311610e6957829003601f168201915b505050505090806003018054610e9b906118f9565b80601f0160208091040260200160405190810160405280929190818152602001828054610ec7906118f9565b8015610f145780601f10610ee957610100808354040283529160200191610f14565b820191906000526020600020905b815481529060010190602001808311610ef757829003601f168201915b5050505050905084565b60095481565b600a5481565b60075481565b600d5481565b600d6000815480929190610f499061192b565b91905055506040518060800160405280600d5481526020018381526020018281526020014281525060066000600d548152602001908152602001600020600082015181600001556020820151816001015560408201518160020155606082015181600301559050507fde2603fb2e41ad6fe77b0f14be1fddac6291f79df8e55fd0873890193b49419a600d548383604051610fe693929190611668565b60405180910390a15050565b6004602052806000526040600020600091509050806000015490806001015490806002015490806003018054611027906118f9565b80601f0160208091040260200160405190810160405280929190818152602001828054611053906118f9565b80156110a05780601f10611075576101008083540402835291602001916110a0565b820191906000526020600020905b81548152906001019060200180831161108357829003601f168201915b5050505050908060040180546110b5906118f9565b80601f01602080910402602001604051908101604052809291908181526020018280546110e1906118f9565b801561112e5780601f106111035761010080835404028352916020019161112e565b820191906000526020600020905b81548152906001019060200180831161111157829003601f168201915b5050505050905085565b828054611144906118f9565b90600052602060002090601f01602090048101928261116657600085556111ad565b82601f1061117f57805160ff19168380011785556111ad565b828001600101855582156111ad579182015b828111156111ac578251825591602001919060010190611191565b5b5090506111ba91906111be565b5090565b5b808211156111d75760008160009055506001016111bf565b5090565b60006111ee6111e984611823565b6117f2565b90508281526020810184848401111561120657600080fd5b6112118482856118b7565b509392505050565b600082601f83011261122a57600080fd5b813561123a8482602086016111db565b91505092915050565b60008135905061125281611a12565b92915050565b6000806040838503121561126b57600080fd5b600083013567ffffffffffffffff81111561128557600080fd5b61129185828601611219565b925050602083013567ffffffffffffffff8111156112ae57600080fd5b6112ba85828601611219565b9150509250929050565b6000602082840312156112d657600080fd5b60006112e484828501611243565b91505092915050565b6000806000806080858703121561130357600080fd5b600061131187828801611243565b945050602085013567ffffffffffffffff81111561132e57600080fd5b61133a87828801611219565b935050604061134b87828801611243565b925050606085013567ffffffffffffffff81111561136857600080fd5b61137487828801611219565b91505092959194509250565b6000806040838503121561139357600080fd5b60006113a185828601611243565b92505060206113b285828601611243565b9150509250929050565b6000806000606084860312156113d157600080fd5b60006113df86828701611243565b93505060206113f086828701611243565b925050604084013567ffffffffffffffff81111561140d57600080fd5b61141986828701611219565b9150509250925092565b60008060006060848603121561143857600080fd5b600061144686828701611243565b935050602061145786828701611243565b925050604061146886828701611243565b9150509250925092565b61147b8161186f565b82525050565b61148a81611881565b82525050565b600061149b82611853565b6114a5818561185e565b93506114b58185602086016118c6565b6114be81611a01565b840191505092915050565b6114d2816118ad565b82525050565b60006020820190506114ed60008301846114c9565b92915050565b600060408201905061150860008301856114c9565b818103602083015261151a8184611490565b90509392505050565b600060808201905061153860008301876114c9565b818103602083015261154a8186611490565b9050818103604083015261155e8185611490565b905061156d6060830184611472565b95945050505050565b600060808201905061158b60008301876114c9565b818103602083015261159d8186611490565b905081810360408301526115b18185611490565b905081810360608301526115c58184611490565b905095945050505050565b60006040820190506115e560008301856114c9565b6115f260208301846114c9565b9392505050565b600060c08201905061160e60008301896114c9565b61161b60208301886114c9565b818103604083015261162d8187611490565b905061163c60608301866114c9565b818103608083015261164e8185611490565b905061165d60a0830184611481565b979650505050505050565b600060608201905061167d60008301866114c9565b61168a60208301856114c9565b61169760408301846114c9565b949350505050565b600060a0820190506116b460008301886114c9565b6116c160208301876114c9565b6116ce60408301866114c9565b81810360608301526116e08185611490565b905081810360808301526116f48184611490565b90509695505050505050565b600060808201905061171560008301876114c9565b61172260208301866114c9565b61172f60408301856114c9565b61173c60608301846114c9565b95945050505050565b600060a08201905061175a60008301886114c9565b61176760208301876114c9565b61177460408301866114c9565b61178160608301856114c9565b81810360808301526117938184611490565b90509695505050505050565b600060a0820190506117b460008301886114c9565b6117c160208301876114c9565b6117ce60408301866114c9565b6117db60608301856114c9565b6117e860808301846114c9565b9695505050505050565b6000604051905081810181811067ffffffffffffffff82111715611819576118186119d2565b5b8060405250919050565b600067ffffffffffffffff82111561183e5761183d6119d2565b5b601f19601f8301169050602081019050919050565b600081519050919050565b600082825260208201905092915050565b600061187a8261188d565b9050919050565b60008115159050919050565b600073ffffffffffffffffffffffffffffffffffffffff82169050919050565b6000819050919050565b82818337600083830152505050565b60005b838110156118e45780820151818401526020810190506118c9565b838111156118f3576000848401525b50505050565b6000600282049050600182168061191157607f821691505b60208210811415611925576119246119a3565b5b50919050565b6000611936826118ad565b91507fffffffffffffffffffffffffffffffffffffffffffffffffffffffffffffffff82141561196957611968611974565b5b600182019050919050565b7f4e487b7100000000000000000000000000000000000000000000000000000000600052601160045260246000fd5b7f4e487b7100000000000000000000000000000000000000000000000000000000600052602260045260246000fd5b7f4e487b7100000000000000000000000000000000000000000000000000000000600052604160045260246000fd5b6000601f19601f8301169050919050565b611a1b816118ad565b8114611a2657600080fd5b5056fea2646970667358221220b14ca6c9a30fb64d1c8cb5ca0e13299ae2dfc899aa3a05baa429453e9f47eb8c64736f6c63430008000033",
  "immutableReferences": {},
  "source": "// SPDX-License-Identifier: MIT\r\npragma solidity ^0.8.0;\r\n\r\ncontract FarmDApp {\r\n    struct Farmer {\r\n        uint256 farmerID;\r\n        string name;\r\n        string contractInfo;\r\n        address walletAddress;\r\n    }\r\n\r\n    struct Produce {\r\n        uint256 produceID;\r\n        uint256 farmerID;\r\n        string produceType;\r\n        uint256 quantity;\r\n        string qualityGrade;\r\n        bool isApproved; // whwere the produce approved by the SACCO manager\r\n    }\r\n    struct Transaction {\r\n        uint256 transactionID;\r\n        uint256 produceID;\r\n        uint256 farmerID;\r\n        uint256 timestamp;\r\n        string status; // \"pending\" & \"Completed\"\r\n\r\n    }\r\n    struct TransportAgent {\r\n        uint256 agentID;\r\n        string name;\r\n        string contactInfo;\r\n        string vehicleDetails;\r\n    }\r\n    struct SmartContract {\r\n        uint256 contractID;\r\n        uint256 transactionID;\r\n        uint256 agentID;\r\n        string terms;\r\n        string status; // \"Active\" , \" Completed\"\r\n    }\r\n    struct Payment {\r\n        uint256 paymentID;\r\n        uint256 transactionID;\r\n        uint256 farmerID;\r\n        uint256 amount;\r\n        uint256 timestamp;\r\n    }\r\n    struct SACCOPoints {\r\n        uint256 pointsID;\r\n        uint256 farmerID;\r\n        uint256 pointsEarned;\r\n        uint256 timestamp;\r\n\r\n    }\r\n\r\n    // Mapping to store data\r\n    mapping (uint256 => Farmer) public farmers;\r\n    mapping (uint256 => Produce) public produces;\r\n    mapping (uint256 => Transaction) public transaction;\r\n    mapping (uint256 => TransportAgent) public transportAgents;\r\n    mapping (uint256 => SmartContract) public smartContract;\r\n    mapping (uint256 => Payment) public payment;\r\n    mapping (uint256 => SACCOPoints) public saccoPoints;\r\n    \r\n    //Counter for IDS\r\n    uint256 public farmerCount=0;\r\n    uint256 public produceCount=0;\r\n    uint256 public transactionCount=0;\r\n    uint256 public agentCount=0;\r\n    uint256 public contractCount=0;\r\n    uint256 public paymentCount=0;\r\n    uint256 public pointsCount=0;\r\n\r\n\r\n    //Events to log actions\r\n    event FarmerRegistered (uint256 farmerID, string name);\r\n    event ProduceSubmitted (uint256 produceID, uint256 farmerID);\r\n    event TransactionCreated (uint256 transactionID, uint256 produceID);\r\n    event SmartContractInitiated (uint256 contractID, uint256 transactionID);\r\n    event PaymentReleased (uint256 paymentID, uint256 farmerID, uint256 amount);\r\n    event PointsEarned (uint256 pointsID, uint256 farmerID, uint256 points);\r\n    \r\n    //function to register Farmer\r\n    function registerFarmer (string memory _name, string memory _contractInfo) public {\r\n        farmerCount++;\r\n        farmers[farmerCount] = Farmer({\r\n            farmerID: farmerCount,\r\n            name: _name,\r\n            contractInfo: _contractInfo,\r\n            walletAddress: msg.sender\r\n\r\n        });\r\n        emit FarmerRegistered (farmerCount, _name);\r\n\r\n    }\r\n    // function to submit Produce\r\n    function submitProduce (uint256 _farmerID, string memory _produceType, uint256 _quantity, string memory _qualityGrade) public{\r\n        produceCount++;\r\n        produces[produceCount] = Produce({\r\n            produceID: produceCount,\r\n            farmerID: _farmerID,\r\n            produceType: _produceType,\r\n            quantity: _quantity,\r\n            qualityGrade: _qualityGrade,\r\n            isApproved: false\r\n\r\n        });\r\n        emit ProduceSubmitted(produceCount, _farmerID);\r\n    }\r\n\r\n    //function to create a transaction\r\n    function createTransaction (uint256 _produceID, uint256 _farmerID) public {\r\n        transactionCount++;\r\n        transaction[transactionCount] = Transaction ({\r\n            transactionID: transactionCount,\r\n            produceID: _produceID,\r\n            farmerID: _farmerID,\r\n            timestamp: block.timestamp,\r\n            status: \"Pending\"\r\n        });\r\n        emit TransactionCreated(transactionCount, _produceID);\r\n    }\r\n    //function to initiate smart contract\r\n    function initiateSmartContract(uint256 _transactionID, uint256 _agentID, string memory _terms) public {\r\n        contractCount++;\r\n        smartContract[contractCount] = SmartContract({\r\n            contractID: contractCount,\r\n            transactionID: _transactionID,\r\n            agentID: _agentID,\r\n            terms: _terms,\r\n            status: \"Active\"\r\n\r\n        });\r\n        emit SmartContractInitiated(contractCount, _transactionID);\r\n    }\r\n    //Function to release Payment\r\n    function relesePayment (uint256 _transactionID, uint256 _farmerID, uint256 _amount)public {\r\n        paymentCount++;\r\n        payment [paymentCount] = Payment({\r\n            paymentID: paymentCount,\r\n            transactionID: _transactionID,\r\n            farmerID: _farmerID,\r\n            amount: _amount,\r\n            timestamp: block.timestamp\r\n            \r\n            });\r\n            emit PaymentReleased(paymentCount, _farmerID, _amount);\r\n    }\r\n    // Function to earn SACCO points\r\n    function earnPoints(uint256 _farmerID, uint256 _points) public {\r\n        pointsCount++;\r\n        saccoPoints[pointsCount] = SACCOPoints({\r\n            pointsID: pointsCount,\r\n            farmerID: _farmerID,\r\n            pointsEarned: _points,\r\n            timestamp: block.timestamp\r\n        });\r\n        emit PointsEarned(pointsCount, _farmerID, _points);\r\n    }\r\n        \r\n\r\n\r\n\r\n\r\n}\r\n",
  "sourcePath": "C:\\Users\\hp\\Desktop\\Andy\\project\\FarmDApp\\contracts\\FarmDApp.sol",
  "compiler": {
    "name": "solc",
    "version": "0.8.0+commit.c7dfd78e.Emscripten.clang"
  },
  "schemaVersion": "3.4.16",
  "updatedAt": "2025-04-02T01:42:55.712Z",
  "networkType": "ethereum",
  "devdoc": {
    "kind": "dev",
    "methods": {},
    "version": 1
  },
  "userdoc": {
    "kind": "user",
    "methods": {},
    "version": 1
  }
}